{
  "_format": "hh-sol-artifact-1",
  "contractName": "AISavior",
  "sourceName": "contracts/AISavior.sol",
  "abi": [
    {
      "inputs": [],
      "stateMutability": "nonpayable",
      "type": "constructor"
    },
    {
      "anonymous": false,
      "inputs": [
        {
          "indexed": true,
          "internalType": "address",
          "name": "user",
          "type": "address"
        },
        {
          "indexed": false,
          "internalType": "string",
          "name": "tag",
          "type": "string"
        },
        {
          "indexed": false,
          "internalType": "string",
          "name": "artwork_hash",
          "type": "string"
        }
      ],
      "name": "NewRegisteredConsentForArtwork",
      "type": "event"
    },
    {
      "anonymous": false,
      "inputs": [
        {
          "indexed": true,
          "internalType": "address",
          "name": "user",
          "type": "address"
        },
        {
          "indexed": false,
          "internalType": "string",
          "name": "tag",
          "type": "string"
        },
        {
          "indexed": false,
          "internalType": "string[]",
          "name": "artwork_hashes",
          "type": "string[]"
        }
      ],
      "name": "RegisteredConsentForArtwork",
      "type": "event"
    },
    {
      "inputs": [
        {
          "internalType": "string",
          "name": "_account_tag",
          "type": "string"
        }
      ],
      "name": "checkRegisteredArtworks",
      "outputs": [
        {
          "internalType": "string[]",
          "name": "",
          "type": "string[]"
        }
      ],
      "stateMutability": "view",
      "type": "function"
    },
    {
      "inputs": [
        {
          "internalType": "string",
          "name": "_tag",
          "type": "string"
        }
      ],
      "name": "getAddressFromTag",
      "outputs": [
        {
          "internalType": "address",
          "name": "",
          "type": "address"
        }
      ],
      "stateMutability": "view",
      "type": "function"
    },
    {
      "inputs": [
        {
          "internalType": "address",
          "name": "holder",
          "type": "address"
        }
      ],
      "name": "getNonce",
      "outputs": [
        {
          "internalType": "uint256",
          "name": "",
          "type": "uint256"
        }
      ],
      "stateMutability": "view",
      "type": "function"
    },
    {
      "inputs": [
        {
          "internalType": "address",
          "name": "",
          "type": "address"
        },
        {
          "internalType": "uint256",
          "name": "",
          "type": "uint256"
        }
      ],
      "name": "holder_artworks",
      "outputs": [
        {
          "internalType": "string",
          "name": "",
          "type": "string"
        }
      ],
      "stateMutability": "view",
      "type": "function"
    },
    {
      "inputs": [
        {
          "internalType": "string",
          "name": "",
          "type": "string"
        }
      ],
      "name": "holder_tag",
      "outputs": [
        {
          "internalType": "address",
          "name": "",
          "type": "address"
        }
      ],
      "stateMutability": "view",
      "type": "function"
    },
    {
      "inputs": [
        {
          "internalType": "string",
          "name": "_account_tag",
          "type": "string"
        }
      ],
      "name": "registerArtist",
      "outputs": [
        {
          "internalType": "bool",
          "name": "",
          "type": "bool"
        }
      ],
      "stateMutability": "nonpayable",
      "type": "function"
    },
    {
      "inputs": [
        {
          "internalType": "string",
          "name": "_account_tag",
          "type": "string"
        },
        {
          "internalType": "string",
          "name": "_hash_art",
          "type": "string"
        },
        {
          "components": [
            {
              "internalType": "bytes32",
              "name": "_hashCodeCert",
              "type": "bytes32"
            },
            {
              "internalType": "bytes32",
              "name": "_r",
              "type": "bytes32"
            },
            {
              "internalType": "bytes32",
              "name": "_s",
              "type": "bytes32"
            },
            {
              "internalType": "uint8",
              "name": "_v",
              "type": "uint8"
            }
          ],
          "internalType": "struct AISavior.SignatureRSV",
          "name": "signed",
          "type": "tuple"
        }
      ],
      "name": "registerArtwork",
      "outputs": [
        {
          "internalType": "string",
          "name": "",
          "type": "string"
        }
      ],
      "stateMutability": "nonpayable",
      "type": "function"
    }
  ],
  "bytecode": "0x608060405234801561001057600080fd5b5073f39fd6e51aad88f6f4ce6ab8827279cfffb92266600160405161003490610337565b908152602001604051809103902060006101000a81548173ffffffffffffffffffffffffffffffffffffffff021916908373ffffffffffffffffffffffffffffffffffffffff1602179055506040518060200160405280604051806060016040528060408152602001611fec604091398152506002600073f39fd6e51aad88f6f4ce6ab8827279cfffb9226673ffffffffffffffffffffffffffffffffffffffff1673ffffffffffffffffffffffffffffffffffffffff168152602001908152602001600020906001610108929190610206565b5073976ea74026e726554db657fa54763abd0c3a0aa9600160405161012c90610398565b908152602001604051809103902060006101000a81548173ffffffffffffffffffffffffffffffffffffffff021916908373ffffffffffffffffffffffffffffffffffffffff160217905550604051806020016040528060405180606001604052806040815260200161202c604091398152506002600073976ea74026e726554db657fa54763abd0c3a0aa973ffffffffffffffffffffffffffffffffffffffff1673ffffffffffffffffffffffffffffffffffffffff168152602001908152602001600020906001610200929190610206565b506106cf565b82805482825590600052602060002090810192821561024e579160200282015b8281111561024d57825182908161023d91906105fd565b5091602001919060010190610226565b5b50905061025b919061025f565b5090565b5b8082111561027f57600081816102769190610283565b50600101610260565b5090565b50805461028f90610416565b6000825580601f106102a157506102c0565b601f0160209004906000526020600020908101906102bf91906102c3565b5b50565b5b808211156102dc5760008160009055506001016102c4565b5090565b600081905092915050565b7f406361636e656100000000000000000000000000000000000000000000000000600082015250565b60006103216007836102e0565b915061032c826102eb565b600782019050919050565b600061034282610314565b9150819050919050565b7f406e6f697665726e000000000000000000000000000000000000000000000000600082015250565b60006103826008836102e0565b915061038d8261034c565b600882019050919050565b60006103a382610375565b9150819050919050565b600081519050919050565b7f4e487b7100000000000000000000000000000000000000000000000000000000600052604160045260246000fd5b7f4e487b7100000000000000000000000000000000000000000000000000000000600052602260045260246000fd5b6000600282049050600182168061042e57607f821691505b602082108103610441576104406103e7565b5b50919050565b60008190508160005260206000209050919050565b60006020601f8301049050919050565b600082821b905092915050565b6000600883026104a97fffffffffffffffffffffffffffffffffffffffffffffffffffffffffffffffff8261046c565b6104b3868361046c565b95508019841693508086168417925050509392505050565b6000819050919050565b6000819050919050565b60006104fa6104f56104f0846104cb565b6104d5565b6104cb565b9050919050565b6000819050919050565b610514836104df565b61052861052082610501565b848454610479565b825550505050565b600090565b61053d610530565b61054881848461050b565b505050565b5b8181101561056c57610561600082610535565b60018101905061054e565b5050565b601f8211156105b15761058281610447565b61058b8461045c565b8101602085101561059a578190505b6105ae6105a68561045c565b83018261054d565b50505b505050565b600082821c905092915050565b60006105d4600019846008026105b6565b1980831691505092915050565b60006105ed83836105c3565b9150826002028217905092915050565b610606826103ad565b67ffffffffffffffff81111561061f5761061e6103b8565b5b6106298254610416565b610634828285610570565b600060209050601f8311600181146106675760008415610655578287015190505b61065f85826105e1565b8655506106c7565b601f19841661067586610447565b60005b8281101561069d57848901518255600182019150602085019450602081019050610678565b868310156106ba57848901516106b6601f8916826105c3565b8355505b6001600288020188555050505b505050505050565b61190e806106de6000396000f3fe608060405234801561001057600080fd5b506004361061007d5760003560e01c8063654acd8c1161005b578063654acd8c146101125780638fc677c8146101425780639355d41914610172578063ddaa8f90146101a25761007d565b80631e2e1b42146100825780632d0335ab146100b25780635d56efd1146100e2575b600080fd5b61009c60048036038101906100979190610c18565b6101d2565b6040516100a99190610ce8565b60405180910390f35b6100cc60048036038101906100c79190610d0a565b61028b565b6040516100d99190610d46565b60405180910390f35b6100fc60048036038101906100f79190610e96565b6102d3565b6040516101099190610feb565b60405180910390f35b61012c60048036038101906101279190610e96565b610435565b604051610139919061101c565b60405180910390f35b61015c6004803603810190610157919061105b565b61047d565b6040516101699190610ce8565b60405180910390f35b61018c60048036038101906101879190610e96565b6107c8565b6040516101999190611101565b60405180910390f35b6101bc60048036038101906101b79190610e96565b610830565b6040516101c9919061101c565b60405180910390f35b600260205281600052604060002081815481106101ee57600080fd5b9060005260206000200160009150915050805461020a9061114b565b80601f01602080910402602001604051908101604052809291908181526020018280546102369061114b565b80156102835780601f1061025857610100808354040283529160200191610283565b820191906000526020600020905b81548152906001019060200180831161026657829003601f168201915b505050505081565b60008060008373ffffffffffffffffffffffffffffffffffffffff1673ffffffffffffffffffffffffffffffffffffffff168152602001908152602001600020549050919050565b606060006001836040516102e791906111b8565b908152602001604051809103902060009054906101000a900473ffffffffffffffffffffffffffffffffffffffff1690506000600260008373ffffffffffffffffffffffffffffffffffffffff1673ffffffffffffffffffffffffffffffffffffffff168152602001908152602001600020905080805480602002602001604051908101604052809291908181526020016000905b8282101561042857838290600052602060002001805461039b9061114b565b80601f01602080910402602001604051908101604052809291908181526020018280546103c79061114b565b80156104145780601f106103e957610100808354040283529160200191610414565b820191906000526020600020905b8154815290600101906020018083116103f757829003601f168201915b50505050508152602001906001019061037c565b5050505092505050919050565b600060018260405161044791906111b8565b908152602001604051809103902060009054906101000a900473ffffffffffffffffffffffffffffffffffffffff169050919050565b6060600061049a8380360381019061049591906112bb565b610879565b905060006001866040516104ae91906111b8565b908152602001604051809103902060009054906101000a900473ffffffffffffffffffffffffffffffffffffffff1690508073ffffffffffffffffffffffffffffffffffffffff163373ffffffffffffffffffffffffffffffffffffffff161461054d576040517f08c379a00000000000000000000000000000000000000000000000000000000081526004016105449061135a565b60405180910390fd5b8173ffffffffffffffffffffffffffffffffffffffff163373ffffffffffffffffffffffffffffffffffffffff16146105bb576040517f08c379a00000000000000000000000000000000000000000000000000000000081526004016105b2906113ec565b60405180910390fd5b6106026000808473ffffffffffffffffffffffffffffffffffffffff1673ffffffffffffffffffffffffffffffffffffffff1681526020019081526020016000205461094f565b60405160200161061291906111b8565b6040516020818303038152906040528051906020012084600001351461066d576040517f08c379a00000000000000000000000000000000000000000000000000000000081526004016106649061147e565b60405180910390fd5b60016000808473ffffffffffffffffffffffffffffffffffffffff1673ffffffffffffffffffffffffffffffffffffffff168152602001908152602001600020546106b891906114cd565b6000808473ffffffffffffffffffffffffffffffffffffffff1673ffffffffffffffffffffffffffffffffffffffff168152602001908152602001600020819055503373ffffffffffffffffffffffffffffffffffffffff167f81343bdc4c902cc592af8cf0a487bc724e5e1a7f676e8807f6618715bf4bc3988787604051610742929190611501565b60405180910390a2600260008273ffffffffffffffffffffffffffffffffffffffff1673ffffffffffffffffffffffffffffffffffffffff168152602001908152602001600020859080600181540180825580915050600190039060005260206000200160009091909190915090816107bb91906116e4565b5084925050509392505050565b6000336001836040516107db91906111b8565b908152602001604051809103902060006101000a81548173ffffffffffffffffffffffffffffffffffffffff021916908373ffffffffffffffffffffffffffffffffffffffff16021790555060019050919050565b6001818051602081018201805184825260208301602085012081835280955050505050506000915054906101000a900473ffffffffffffffffffffffffffffffffffffffff1681565b6000806040518060400160405280601c81526020017f19457468657265756d205369676e6564204d6573736167653a0a333200000000815250905060008184600001516040516020016108cd92919061181e565b6040516020818303038152906040528051906020012090506000600182866060015187602001518860400151604051600081526020016040526040516109169493929190611864565b6020604051602081039080840390855afa158015610938573d6000803e3d6000fd5b505050602060405103519050809350505050919050565b60606000600161095e84610a1d565b01905060008167ffffffffffffffff81111561097d5761097c610d6b565b5b6040519080825280601f01601f1916602001820160405280156109af5781602001600182028036833780820191505090505b509050600082602001820190505b600115610a12578080600190039150507f3031323334353637383961626364656600000000000000000000000000000000600a86061a8153600a8581610a0657610a056118a9565b5b049450600085036109bd575b819350505050919050565b600080600090507a184f03e93ff9f4daa797ed6e38ed64bf6a1f0100000000000000008310610a7b577a184f03e93ff9f4daa797ed6e38ed64bf6a1f0100000000000000008381610a7157610a706118a9565b5b0492506040810190505b6d04ee2d6d415b85acef81000000008310610ab8576d04ee2d6d415b85acef81000000008381610aae57610aad6118a9565b5b0492506020810190505b662386f26fc100008310610ae757662386f26fc100008381610add57610adc6118a9565b5b0492506010810190505b6305f5e1008310610b10576305f5e1008381610b0657610b056118a9565b5b0492506008810190505b6127108310610b35576127108381610b2b57610b2a6118a9565b5b0492506004810190505b60648310610b585760648381610b4e57610b4d6118a9565b5b0492506002810190505b600a8310610b67576001810190505b80915050919050565b6000604051905090565b600080fd5b600080fd5b600073ffffffffffffffffffffffffffffffffffffffff82169050919050565b6000610baf82610b84565b9050919050565b610bbf81610ba4565b8114610bca57600080fd5b50565b600081359050610bdc81610bb6565b92915050565b6000819050919050565b610bf581610be2565b8114610c0057600080fd5b50565b600081359050610c1281610bec565b92915050565b60008060408385031215610c2f57610c2e610b7a565b5b6000610c3d85828601610bcd565b9250506020610c4e85828601610c03565b9150509250929050565b600081519050919050565b600082825260208201905092915050565b60005b83811015610c92578082015181840152602081019050610c77565b60008484015250505050565b6000601f19601f8301169050919050565b6000610cba82610c58565b610cc48185610c63565b9350610cd4818560208601610c74565b610cdd81610c9e565b840191505092915050565b60006020820190508181036000830152610d028184610caf565b905092915050565b600060208284031215610d2057610d1f610b7a565b5b6000610d2e84828501610bcd565b91505092915050565b610d4081610be2565b82525050565b6000602082019050610d5b6000830184610d37565b92915050565b600080fd5b600080fd5b7f4e487b7100000000000000000000000000000000000000000000000000000000600052604160045260246000fd5b610da382610c9e565b810181811067ffffffffffffffff82111715610dc257610dc1610d6b565b5b80604052505050565b6000610dd5610b70565b9050610de18282610d9a565b919050565b600067ffffffffffffffff821115610e0157610e00610d6b565b5b610e0a82610c9e565b9050602081019050919050565b82818337600083830152505050565b6000610e39610e3484610de6565b610dcb565b905082815260208101848484011115610e5557610e54610d66565b5b610e60848285610e17565b509392505050565b600082601f830112610e7d57610e7c610d61565b5b8135610e8d848260208601610e26565b91505092915050565b600060208284031215610eac57610eab610b7a565b5b600082013567ffffffffffffffff811115610eca57610ec9610b7f565b5b610ed684828501610e68565b91505092915050565b600081519050919050565b600082825260208201905092915050565b6000819050602082019050919050565b600082825260208201905092915050565b6000610f2782610c58565b610f318185610f0b565b9350610f41818560208601610c74565b610f4a81610c9e565b840191505092915050565b6000610f618383610f1c565b905092915050565b6000602082019050919050565b6000610f8182610edf565b610f8b8185610eea565b935083602082028501610f9d85610efb565b8060005b85811015610fd95784840389528151610fba8582610f55565b9450610fc583610f69565b925060208a01995050600181019050610fa1565b50829750879550505050505092915050565b600060208201905081810360008301526110058184610f76565b905092915050565b61101681610ba4565b82525050565b6000602082019050611031600083018461100d565b92915050565b600080fd5b60006080828403121561105257611051611037565b5b81905092915050565b600080600060c0848603121561107457611073610b7a565b5b600084013567ffffffffffffffff81111561109257611091610b7f565b5b61109e86828701610e68565b935050602084013567ffffffffffffffff8111156110bf576110be610b7f565b5b6110cb86828701610e68565b92505060406110dc8682870161103c565b9150509250925092565b60008115159050919050565b6110fb816110e6565b82525050565b600060208201905061111660008301846110f2565b92915050565b7f4e487b7100000000000000000000000000000000000000000000000000000000600052602260045260246000fd5b6000600282049050600182168061116357607f821691505b6020821081036111765761117561111c565b5b50919050565b600081905092915050565b600061119282610c58565b61119c818561117c565b93506111ac818560208601610c74565b80840191505092915050565b60006111c48284611187565b915081905092915050565b600080fd5b6000819050919050565b6111e7816111d4565b81146111f257600080fd5b50565b600081359050611204816111de565b92915050565b600060ff82169050919050565b6112208161120a565b811461122b57600080fd5b50565b60008135905061123d81611217565b92915050565b600060808284031215611259576112586111cf565b5b6112636080610dcb565b90506000611273848285016111f5565b6000830152506020611287848285016111f5565b602083015250604061129b848285016111f5565b60408301525060606112af8482850161122e565b60608301525092915050565b6000608082840312156112d1576112d0610b7a565b5b60006112df84828501611243565b91505092915050565b7f4d6573736167652053656e646572206973206e6f7420746865206f776e65722060008201527f6f662074686520617274206163636f756e740000000000000000000000000000602082015250565b6000611344603283610c63565b915061134f826112e8565b604082019050919050565b6000602082019050818103600083015261137381611337565b9050919050565b7f4d6573736167652053656e64657220646f6573206e6f7420686176652061636360008201527f65737320746f20746869732077616c6c6574206163636f756e74000000000000602082015250565b60006113d6603a83610c63565b91506113e18261137a565b604082019050919050565b60006020820190508181036000830152611405816113c9565b9050919050565b7f57726f6e67207369676e61747572652e204163636573732064656e696564202d60008201527f2041757468656e7469636174696f6e204661696c656400000000000000000000602082015250565b6000611468603683610c63565b91506114738261140c565b604082019050919050565b600060208201905081810360008301526114978161145b565b9050919050565b7f4e487b7100000000000000000000000000000000000000000000000000000000600052601160045260246000fd5b60006114d882610be2565b91506114e383610be2565b92508282019050808211156114fb576114fa61149e565b5b92915050565b6000604082019050818103600083015261151b8185610caf565b9050818103602083015261152f8184610caf565b90509392505050565b60008190508160005260206000209050919050565b60006020601f8301049050919050565b600082821b905092915050565b60006008830261159a7fffffffffffffffffffffffffffffffffffffffffffffffffffffffffffffffff8261155d565b6115a4868361155d565b95508019841693508086168417925050509392505050565b6000819050919050565b60006115e16115dc6115d784610be2565b6115bc565b610be2565b9050919050565b6000819050919050565b6115fb836115c6565b61160f611607826115e8565b84845461156a565b825550505050565b600090565b611624611617565b61162f8184846115f2565b505050565b5b818110156116535761164860008261161c565b600181019050611635565b5050565b601f8211156116985761166981611538565b6116728461154d565b81016020851015611681578190505b61169561168d8561154d565b830182611634565b50505b505050565b600082821c905092915050565b60006116bb6000198460080261169d565b1980831691505092915050565b60006116d483836116aa565b9150826002028217905092915050565b6116ed82610c58565b67ffffffffffffffff81111561170657611705610d6b565b5b611710825461114b565b61171b828285611657565b600060209050601f83116001811461174e576000841561173c578287015190505b61174685826116c8565b8655506117ae565b601f19841661175c86611538565b60005b828110156117845784890151825560018201915060208501945060208101905061175f565b868310156117a1578489015161179d601f8916826116aa565b8355505b6001600288020188555050505b505050505050565b600081519050919050565b600081905092915050565b60006117d7826117b6565b6117e181856117c1565b93506117f1818560208601610c74565b80840191505092915050565b6000819050919050565b611818611813826111d4565b6117fd565b82525050565b600061182a82856117cc565b91506118368284611807565b6020820191508190509392505050565b61184f816111d4565b82525050565b61185e8161120a565b82525050565b60006080820190506118796000830187611846565b6118866020830186611855565b6118936040830185611846565b6118a06060830184611846565b95945050505050565b7f4e487b7100000000000000000000000000000000000000000000000000000000600052601260045260246000fdfea26469706673582212207c4ebf4019dd74fbfc02de191d0e601ba7b1bc663d7ebce8a62ce67be827ea3164736f6c634300081c00336364303461313130653563343034396561636536336263653035643333616432623336386130643638623939623031393062383732373336643936383939306561646438653439613838303864376537393033306433353163313464356464343338613637316430326266306263656238356166323865636335346535323834",
  "linkReferences": {},
  "deployedLinkReferences": {}
}